S00C0000414D52432E73726563F5
S11300000C943A000C9457000C9457000C9457002D
S11300100C9457000C9457000C9457000C94570000
S11300200C9457000C9457000C9457000C945700F0
S11300300C9457000C9457000C9457000C945700E0
S11300400C9457000C9457000C9457000C945700D0
S11300500C9457000C9457000C9457000C945700C0
S11300600C9457000C9457006364696E6F70737539
S113007078585B0011241FBECFEFD8E0DEBFCDBFA0
S113008011E0A0E0B1E0E4ECF9E002C005900D92CB
S1130090AC33B107D9F721E0ACE3B1E001C01D9264
S11300A0AC33B207E1F70E940F010C94E0040C9406
S11300B000009093C5008093C40088E18093C10040
S11300C086E08093C20008958091C0008823E4F7FD
S11300D08091C6000895FC0107C09091C00095FF6F
S11300E0FCCF31968093C60080818111F6CF0895AC
S11300F0CF93DF93CDB7DEB72A970FB6F894DEBF60
S11301000FBECDBF4AE0BE016F5F7F4F0E9440012A
S1130110CE0101960E946B002A960FB6F894DEBFBA
S11301200FBECDBFDF91CF9108958AB180668AB9A1
S11301308AB18C608AB983EA84BD83E085BD81EA93
S1130140809380008BE08093810008958130910535
S113015069F477232CF08BB18B7F8BB967BD08953D
S11301608BB184608BB9619567BD0895029761F482
S113017077232CF08BB1877F8BB968BD08958BB141
S113018088608BB9619568BD0895CF93DF9300D0E3
S113019000D0CDB7DEB79E012D5F3F4F3F932F9325
S11301A0225031093F932F9320E031E03F932F9366
S11301B09F938F930E9465010FB6F894DEBF0FBE24
S11301C0CDBF029709F586E091E00E946B0089811A
S11301D09A810E9478008AE191E00E946B008B81F1
S11301E09C810E94780088E391E00E946B00698101
S11301F07A8181E090E00E94A6006B817C8182E09C
S113020090E00E94A60004C08CE191E00E946B0083
S11302100F900F900F900F90DF91CF910895CF938F
S1130220DF93CDB7DEB764970FB6F894DEBF0FBE89
S1130230CDBF87E690E00E9459000E949500789413
S113024000E010E00E9464008A3011F08D3071F4F7
S1130250E1E0F0E0EC0FFD1FE00FF11F1082CE0192
S113026001960E94C50000E010E0ECCFE1E0F0E070
S1130270EC0FFD1FE00FF11F80830F5F1F4FE2CFD4
S1130280BB274A3031F4992322F4BDE2909581953D
S11302909F4F0C944C01BB27FB015527AA27880FBD
S11302A0991FAA1FA41710F0A41B83955051B9F7E6
S11302B0A05DAA3308F0A95DA193009779F7B11165
S11302C0B1931192CB010C943F04AEE0B0E0EBE6A5
S11302D0F1E00C94B90485E08C838B899C899A8322
S11302E08983AE01495E5F4F6D897E89CE01019697
S11302F00E941A032E96E2E00C94D50420FD09C056
S1130300FC0123FD05C022FF02C073836283518375
S11303104083089544FD17C046FD17C0AB01BC01DE
S1130320DA01FB01AA0FBB1FEE1FFF1F1094D1F7C8
S11303304A0F5B1F6E1F7F1FCB01BA01660F771F29
S1130340881F991F09C033E001C034E0660F771F8E
S1130350881F991F3150D1F7620F711D811D911DA6
S113036008950F931F93CF93DF938C01C8010E94CC
S11303704F04EC0197FD08C00E942B04892BB1F7B0
S1130380B801CE010E948D04CE01DF91CF911F915F
S11303900F9108958F929F92AF92BF92EF92FF9226
S11303A00F931F93CF93DF938C01D62F7A01B22E34
S11303B00E944F049C0133272B32310531F02D323A
S11303C0310561F48B2D8068B82ED15011F480E092
S11303D068C0C8010E944F0497FDF9CFCB2DCD7F93
S11303E02B2D207309F58033F9F4AA24AA94AD0EB9
S11303F009F443C0C8010E944F0497FD3EC09C010C
S11304002F7D33272835310549F4C264D250A9F130
S1130410C8010E944F0497FF07C02FC0B6FE02C058
S1130420C26001C0C261DA2D812C912C540120EDEF
S1130430280F283080F0C4FF04C0B8010E948D0446
S113044019C02A3040F0C6FFF8CF2F7D3FEE320F9F
S1130450363098F727504C2FC501B4010E948A0109
S11304604B015C01C260D15059F0C8010E944F0495
S113047097FFDDCFC1FD04C0AACF812C912C54017C
S1130480C7FF08C0B094A09490948094811C911CE0
S1130490A11CB11C2C2FB501A401C7010E947E012F
S11304A081E0DF91CF911F910F91FF90EF90BF906A
S11304B0AF909F908F900895A0E2B0E0E2E6F2E062
S11304C00C94AC045C01962E7A01F9018E010F5F45
S11304D01F4F680180E2D8011D928A95E9F7D50182
S11304E013968C9080E090E0612C712C30E061E0F8
S11304F070E083FC259183FE21918F01522E2111FE
S113050003C080E090E092C02E3511F4009751F1C1
S1130510432F50E0481759073CF42D3559F12D323B
S113052019F4772009F103C0772009F46AC0452D36
S1130530469546954695D601A40FB11D452D4770A5
S11305408B0102C0000F111F4A95E2F7A8015C91CC
S1130550452B4C93651459F0561410F45394E7CF7B
S11305605A94E5CF31E004C07724739401C0712C10
S11305700196BFCF772019F08E8180628E8331116E
S113058003C08824839417C0F6019E012F5D3F4F5A
S11305908081809581932E173F07D1F7F2CFE11424
S11305A0F10429F0D7018C93F70131967F019A94D5
S11305B0812C9920F9F0C5010E944F0497FD18C0C1
S11305C0FC01FF2723E0F595E7952A95E1F7EC0D6B
S11305D0FD1D208130E0AC014770552702C03595E0
S11305E027954A95E2F720FDDACFB5010E948D04E4
S11305F0811087CFE114F10411F0D7011C92C801D6
S113060015C0422F469546954695D601A40FB11DB7
S1130610422F47708B0102C0000F111F4A95E2F769
S1130620A8015C91452B4C93622EA2CFA096EFE0DB
S11306300C94C804A0E0B0E0E0E2F3E00C94AC0455
S11306406C01EB015A01FC0117821682512CF60150
S1130650E380FE01E3FC8591E3FE8191182FEF0115
S1130660882309F4EEC090E00E942B04892B21F02A
S1130670C6010E94B101EBCF153241F4FE01E3FC47
S11306801591E3FE1191EF01153281F4C6010E9428
S11306904F0497FDD4C0412F50E09C013327241709
S11306A03507A9F2B6010E948D04CBC01A3239F481
S11306B0E3FC1591E3FE1191EF0101E001C000E0BC
S11306C0F12C20ED210F2A3080F402606F2D70E0B0
S11306D080E090E040E20E948A01F62EFE01E3FCF5
S11306E01591E3FE1191EF01ECCF01FF03C0F1106E
S11306F003C0A7C0FF24FA94183619F01C3651F031
S113070010C0FE01E3FC1591E3FE1191EF011836D0
S113071041F408600460FE01E3FC1591E3FE1191CD
S1130720EF01112309F48DC0612F70E088E690E099
S11307300E943404892B09F484C000FD07C0F5012C
S113074080809180C50102965C0102C0812C912CAD
S11307501E3651F4F6014681578160E070E0202F87
S1130760C4010E947E0173CF1336A9F401FD02C0B7
S1130770FF24F394C6010E944F0497FD60C08114C6
S1130780910429F0F4018083C40101964C01FA9488
S1130790F110F0CF50C01B3559F49E01A4016F2D08
S11307A0C6010E945C02EC01892B09F044C03EC0E2
S11307B0C6010E94B10197FD42C01F3661F128F4C1
S11307C0143639F1193651F128C0133771F0153741
S11307D001F123C08114910429F0F4016082C40161
S11307E001964C01FA94FF2071F0C6010E944F0457
S11307F03C0197FD08C00E942B04892B59F3B601D4
S1130800C3010E948D0481149104A9F0F4011082A3
S113081012C0006203C0006101C00064202FA40163
S11308206F2DC6010E94CA01811105C0F6018381A2
S1130830807329F406C000FD0ACF539408CF5520D5
S113084019F0852D90E002C08FEF9FEFCDB7DEB792
S1130850EFE00C94C80491110C94A604803219F0B2
S113086089508550C8F70895FC010590061621F0BB
S11308700020D9F7C00108953197CF010895DC0114
S1130880FC01672F71917723E1F7329704C07C91C3
S11308906D9370836291AE17BF07C8F30895CF9329
S11308A0DF93EC012B8120FF33C026FF0AC02F7B8E
S11308B02B838E819F8101969F838E838A8190E012
S11308C029C022FF0FC0E881F9818081082E000C25
S11308D0990B009719F420622B831AC03196F9837F
S11308E0E8830EC0EA85FB85099597FF09C02B8133
S11308F0019611F080E201C080E1822B8B8308C055
S11309002E813F812F5F3F4F3F832E83992702C063
S11309108FEF9FEFDF91CF910895FB01238120FF9B
S113092012C026FD10C08F3F3FEF930761F0828312
S11309302F7D206423832681378121503109378319
S11309402683992708958FEF9FEF08959927882785
S113095008952F923F924F925F926F927F928F925F
S11309609F92AF92BF92CF92DF92EF92FF920F933A
S11309701F93CF93DF93CDB7DEB7CA1BDB0B0FB644
S1130980F894DEBF0FBECDBF09942A883988488801
S11309905F846E847D848C849B84AA84B984C88497
S11309A0DF80EE80FD800C811B81AA81B981CE0F8E
S11309B0D11D0FB6F894DEBF0FBECDBFED01089573
S10709C0F894FFCFD5
S11309C42564202564005265636569766564205056
S11309D4574D2076616C7565733A20004572726FC9
S11309E4723A20496E76616C696420696E7075741C
S10F09F420666F726D61742E0D0A000005
S9030000FC
