:100000000C9434000C9446000C9446000C9446006A
:100010000C9446000C9446000C9446000C94460048
:100020000C9446000C9446000C9446000C94460038
:100030000C9446000C9446000C9446000C94460028
:100040000C9446000C9446000C9446000C94460018
:100050000C9446000C9446000C9446000C94460008
:100060000C9446000C94460011241FBECFEFD8E03C
:10007000DEBFCDBF21E0A0E0B1E001C01D92A03005
:10008000B207E1F70E9475000C9485000C94000003
:100090008AB180668AB98AB18C608AB983EA84BDE4
:1000A00081E080936E0083E085BD089581309105E5
:1000B00069F477232CF08BB18B7F8BB967BD0895E2
:1000C0008BB184608BB9619567BD0895029761F427
:1000D00077232CF08BB1877F8BB968BD08958BB1E6
:1000E00088608BB9619568BD08950E944800789436
:1000F00064E670E081E090E00E94560064E670E003
:0E01000082E090E00E945600F3CFF894FFCF0B
:00000001FF
